:020000041000EA
:1000000000B5324B212058609868022188439860DF
:10001000D860186158612E4B002199600221596106
:100020000121F02299502B49196001219960352056
:1000300000F044F80222904214D00621196600F024
:1000400034F8196E01211966002018661A6600F04E
:100050002CF8196E196E196E052000F02FF8012189
:100060000842F9D1002199601B49196000215960AB
:100070001A491B48016001219960EB211966A021F2
:10008000196600F012F800219960164914480160C1
:100090000121996001BC002800D000471248134993
:1000A000086003C880F30888084703B5996A0420EC
:1000B0000142FBD001200142F8D103BD02B5186610
:1000C0001866FFF7F2FF186E186E02BD00000240BE
:1000D000000000180000070000035F00212200005C
:1000E000F4000018222000A00001001008ED00E03C
:1000F00000000000000000000000000074B24E7A12
:1001000000200420F7010010C3010010C5010010F9
:10011000C1010010C1010010C1010010C101001097
:10012000C1010010C1010010C1010010C701001081
:10013000C1010010C1010010C9010010CB01001065
:10014000CD010010CD010010CD010010CD01001037
:10015000CD010010CD010010CD010010CD01001027
:10016000CD010010CD010010CD010010CD01001017
:10017000CD010010CD010010CD010010CD01001007
:10018000CD010010CD010010CD010010CD010010F7
:10019000CD010010CD010010CD010010CD010010E7
:1001A000CD010010CD010010CD010010CD010010D7
:1001B000CD010010CD010010CD010010CD010010C7
:1001C00000BE00BE00BE00BE00BE00BE00F04BF888
:1001D000103800BEF2EB88717C9C00109C9C0010D3
:1001E0003402001090A31AE700202149086006C8D5
:1001F00081F3088810471F48006800282FD10DA4FC
:100200000ECC002902D000F012F8F9E71A491B4A77
:10021000002000E001C19142FCD1194988471949E9
:1002200088471949884700BEFDE701C901C29A42C3
:10023000FBD370479C9C0010C000002040050020AC
:100240001CA1001000000420000004201CA10010CC
:1002500000100420001004200000000070470B482C
:1002600005F0E0FA0047EFF30580C0B270470000E8
:1002700008ED00E0000000D04005002044130020FD
:10028000BD3900108D0B0010AD3A0010575600001C
:1002900006005250ABB36053409A00100600525013
:1002A000861C0302509A0010060052505422A29D50
:1002B000589A001005005250DE65F4681CA1001029
:1002C000F8B5C04610B5064C2378002B07D1054B76
:1002D000002B02D0044800E000BF0123237010BDB2
:1002E000600800200000000010960010044B10B5BC
:1002F000002B03D00349044800E000BF10BDC046F6
:10030000000000006408002010960010F0B5474679
:10031000CE4680B5040083B0884647484121170087
:1003200099460A9E01F05EFE052C00D97FE0434B02
:10033000A4001B5900219F46414801F053FE202094
:1003400001F0D6FC4346092B02D8202001F0D0FC56
:100350003C4D01AC42462900200005F02FFA200058
:1003600001F0B0FF2F2001F0C3FC092F02D830208C
:1003700001F0BEFC3A002900200005F01FFA200021
:1003800001F0A0FF2F2001F0B3FC4A462900200015
:1003900005F014FA200001F095FF202001F0A8FCE0
:1003A00001270B2E01D900270C3E092E02D8202050
:1003B00001F09EFC6C4632002900200005F0FEF999
:1003C000200001F07FFF3A2001F092FC0B9B1A0005
:1003D000092B03D8302001F08BFC0B9A2900200058
:1003E00005F0ECF9200001F06DFF002F1BD016483E
:1003F00001F068FF03B0C0BCB946B046F0BD134879
:1004000001F0F0FD9BE7124801F0ECFD97E7114881
:1004100001F0E8FD93E7104801F0E4FD8FE70F4895
:1004200001F0E0FD8BE70E4801F04CFFE2E7002110
:100430000C4801F0D7FD82E78C03002038960010AD
:10044000209600102C960010309600102496001074
:100450001096001014960010189600101C960010AC
:10046000349600102896001030B5174B87B01B68E3
:1004700004AC2380154B07251B682000A370144B88
:100480001B68E370134B1B682371134B1B6863716C
:10049000124B1B68A371124B1B68E37108F01CFF21
:1004A0000022A35E0321022204206557A256615652
:1004B00020560295062565570195647964B200942B
:1004C000FFF724FF07B030BD24130020C412002022
:1004D000300E00209C0E0020B40E0020C012002020
:1004E000E8120020F8B5214E140032780D001F00EC
:1004F000002A2FD11E4A117800292AD01D4C2368CA
:10050000BB4226D21C4D2B78412B22D02B78422B7C
:100510001FD02B78432B1CD02B78442B19D02B7851
:100520002A2B16D02B78232B13D000232878137076
:10053000C0B201F0DDFB114E21683068002902D005
:100540008300181840002B780131303B1B183360B2
:100550002160F8BD01F0B6FE2800402101F042FD07
:1005600000232000337000F0C1FEC3E788030020A1
:100570003D130020280E00203C13002020130020F3
:10058000F8B5CD4C2368062B00D945E1CB4A9B003A
:10059000D3589F46CA4D2B78002B00D01CE2C94B84
:1005A0001B78002B00D05FE102230422C649C74814
:1005B000FFF798FFC64B1B78442B00D002E1C54ED5
:1005C0003378002B00D1FDE0C34B1A683B2A00D9D9
:1005D000E5E1C249897949B28A4200D35CE2C04967
:1005E0000978022900D1ADE1BE490A602268B54907
:1005F0000132226000222A700A7001210024BA4AC6
:100600001170CD21B94A0120C90014601C6000F0AE
:10061000BBFF3470D6E0AA4D2B78002B00D0FEE152
:10062000A84B1B78002B00D033E102230422A649FB
:10063000AF48FFF757FFA64B1B78442B00D0C1E013
:10064000A44E3378002B00D1BCE0A34B1A683B2AA0
:1006500000D9EBE1A149A24FC97949B28A4203D836
:100660003978022900D144E2A2490A600022954962
:1006700022602A700A7001219B4A00241170CD214A
:100680009A4A0120C9001C60146000F07DFF9A4B5B
:1006900034701C603B78022B00D1CEE105233B7007
:1006A00090E0874D2B78002B00D0A3E1854B1B7881
:1006B000002B00D1DFE00423052290499048FFF78A
:1006C00011FF834B1B78442B7CD1824E3378002B57
:1006D00078D08021804B49011A688A4200D35EE1BC
:1006E0007E490020095E8A4200D3CDE17C49097829
:1006F000022900D1D9E0834977E7714D2B78002B8F
:1007000000D07EE16F4B1B78002B00D0BAE00223B3
:1007100006227D497D48FFF7E5FE6D4B1B78442B93
:1007200050D16C4E3378002B4CD06B4B1A68511E55
:100730000B2900D933E16949897849B28A4200D34B
:100740007EE167490978022900D1A9E070494CE7A8
:100750005B4D2B78002B00D05AE15A4B1B78002BB5
:1007600000D07AE0022304226A496B48FFF7BAFE00
:10077000574B1B78442B25D1564E3378002B21D074
:10078000554B1A68511E1E2900D908E15349C978F2
:1007900049B28A4200D39AE151490978022900D12D
:1007A000E4E05E4921E7474D2B78002B47D0012339
:1007B0000C2252495A48FFF795FE454B1B78442BB3
:1007C00000D1F2E0F8BD3E4D2B78002B00D00AE1BD
:1007D0003C4B1B78002B39D102230522514952484A
:1007E000FFF780FE3A4B1B78442BEBD1394E337820
:1007F000002BE7D0384B1A68172A00D9CFE03749C9
:10080000497949B28A4200D327E13549097802295A
:1008100000D1B5E04549E8E63A4B454A45491A60FA
:100820000C223B4B1A6001233C4A136000220A60F1
:100830003E490A602B4A13602E4A1360C2E7012327
:100840000C223D493648FFF74DFEB6E7022305224C
:100850002A493548FFF746FEC4E702230422274908
:100860002D48FFF73FFE83E7022304222349174860
:10087000FFF738FE9EE60423052230492048FFF7A3
:1008800031FE1EE7022306221C492048FFF72AFEFC
:1008900043E70223042219491548FFF723FECAE65D
:1008A00027490978002900D150E7012200212A7048
:1008B000044A1170A1E6C0462C0E00201C970010BF
:1008C000381300203B13002004970010FC96001002
:1008D0003C1300203D13002020130020F0030020D3
:1008E00036130020C012002088030020280E0020AC
:1008F00014970010E8120020CC1200206C96001013
:100900006496001024130020989600109096001012
:10091000C4120020B0960010A8960010300E0020DF
:10092000C0960010EC960010E4960010B40E002063
:10093000E50700009C0E0020D09600107C96001069
:10094000351300207A490978002900D14CE679490D
:100950000978002900D147E677490978002900D1B4
:1009600042E67649097800299FD13DE67249097827
:10097000002900D115E771490978002995D110E7C0
:100980006C490978002900D144E76B4909780029AE
:1009900000D13FE769490978002986D13AE701216A
:1009A000674A117000222A7027E6664E3278002AC4
:1009B00000D107E7644B1968062905D8634A11601E
:1009C0002268013222600022002401212A70604A3C
:1009D0001470604A117014E6022304225E495F48D5
:1009E000FFF780FDE6E5022305225B495C48FFF73F
:1009F00079FDF7E60423052257495A48FFF772FDAF
:100A00005FE60223062254495748FFF76BFD84E650
:100A10000223042250495548FFF764FDA8E602234B
:100A200004224D495248FFF75DFD04E60121444A86
:100A3000504F117000222A701DE602333B70C1E650
:100A40008A4200D082E63D490978002900D17DE63E
:100A50000120394908704849C7E58A4200D0D9E6E3
:100A600034490978002900D1D4E6334909780029AE
:100A700000D1CFE631490978002900D1CAE601202A
:100A80002B4908703D49B0E58A4200D033E6012089
:100A90002A4908703A49A8E58A4200D0A4E52449C9
:100AA0000978002900D19FE522490978002900D161
:100AB0009AE521490978002900D195E51F4909786F
:100AC000002900D190E501202E4908708CE58A426A
:100AD00000D066E618490978002900D161E6174977
:100AE0000978002900D15CE60120124908702649E6
:100AF0007BE50F490978002900D1B5E50D49097852
:100B0000002900D1B0E50C490978002900D1ABE5F6
:100B10000A490978002900D1A6E51A49097800296F
:100B200000D1A1E5012200212A70054A1170A2E539
:100B3000321300203013002034130020351300201E
:100B40003B1300203D130020201300209C0E0020AA
:100B5000381300208803002050960010FC960010E7
:100B6000E49600106496001090960010A89600106D
:100B70001497001036130020C4120020B40E002079
:100B80002413002033130020300E0020F0B5DE4681
:100B900057464E464546E0B589B005F0A5FE00F043
:100BA000C7FA00F03FFE0A2000F066FA002806D1DE
:100BB000C14805F05DFEC14805F05AFEFEE7C04C95
:100BC000BF4BE47900229B5EBD49BD4ABC4864B27C
:100BD0009278C97800790294B94C52B2A47949B29A
:100BE00064B20194B64C40B2647906AE64B200942B
:100BF000FFF78CFB08F054FBB14808F06DFBB14BDC
:100C0000B14F9946B14BB24C9B46B24BB24D984650
:100C1000D0231B069A463B78002B00D130BF00F052
:100C2000F3F900F093F900F005FA2378442B00D192
:100C3000C0E02378412B00D1D5E02378422B00D1AE
:100C4000E0E02378432B00D1C6E02378232B11D09A
:100C50002B7842461278002A14D080215246C902CD
:100C60005161052BD7D89D4A9B00D3589F46FFF76B
:100C700087FCD0E79A4B1B78002BE9D00023424633
:100C800013702B7880215246C9029161E9E7954B98
:100C900030001B683380944B1B68B370934B1B6808
:100CA000F370934B1B683371924B1B687371924BBB
:100CB0001B68B371914B1B680593F37100F00EFB39
:100CC00000235A462B701360A5E78D4B1B78002B31
:100CD000A1D04B461B68152B00DCD4E02B2B00DC8D
:100CE000D9E000234A4613600023854A1370854AE1
:100CF000323313708FE7FFF7B7FB00235A462B7090
:100D0000136088E7CD210120C90000F03DFC0023DD
:100D1000734A7D4913705A46136001220A707B4A58
:100D20002B7013607A4A13604A461360794A137035
:100D3000794A1370794A1370794A1370794A13709B
:100D4000794A1370794A1370794A1370794A13708B
:100D5000237843461B78002B00D18FE08022534636
:100D6000D2025A61564808F00DFB734B1B78DAB279
:100D7000002B5AD00023704A51491370504B5048F1
:100D800000229A5E4E4B0592DB794D4A5BB2927817
:100D9000C978007902934A4B52B29B7949B25BB24F
:100DA0000193474B40B25B795BB20093059BFFF721
:100DB000ADFA30E72B780593002B00D039E7484B8C
:100DC0001B78002B3FD12378412B00D035E72378C7
:100DD0002378432B00D038E7414B1B78002B91D16F
:100DE0002B78227835E72B78012BF0D1CD2101200B
:100DF000C90000F0C9FB02232B700023384A13708E
:100E00002378E5E72B78012B00D01AE7CD210120CC
:100E1000C90000F0B9FB03232B700023304A137084
:100E20002378432B00D010E7DAE7354B1B78002BF3
:100E300000D1F0E64B461B68062B24DD0D2B32DD7E
:100E40004B461A6050E7CD2101230120C9002B70C9
:100E500000F09AFB0121394801F0C4F841213848DB
:100E600001F0C0F81421374801F0BCF8542136488D
:100E700001F0B8F84B46059A1A60DAE6802253462C
:100E8000D2029A616EE74A460133002101201360C5
:100E900001F078F828E74A46013301210120136068
:100EA00001F070F820E701214A4601330800136081
:100EB00001F068F818E7C046389700105497001002
:100EC000F0030020CC120020780B00202C0E002014
:100ED0003C1300203F1300203613002068970010B9
:100EE0003D13002024130020C4120020300E0020E7
:100EF0009C0E0020B40E0020C0120020E81200203A
:100F00002F130020FD03002088030020280E00205E
:100F10002013002037130020381300203B1300203B
:100F2000351300203413002030130020311300202B
:100F300032130020331300203E130020A4030020AE
:100F4000B8030020CC030020DC030020234B10B5A5
:100F50001A78D20730D501211A788A431A70204AAC
:100F60001378013BDBB21370002B01D11D4B1970BC
:100F70001D4A1378013BDBB21370002B03D11B4BCE
:100F80001A78002A19D11A4A1388013B9BB21380A0
:100F9000002B04D10121174B197064231380164ACA
:100FA0001388013B9BB21380002B05D1134B1A7899
:100FB000002A01D000221A7010BD00221A7000F021
:100FC000C3F801220E4B18700E4B1A70084A138892
:100FD000013B9BB21380002BE1D1DBE7780B0020B3
:100FE000FD0300202F130020FC030020F803002045
:100FF000FA0300203E130020281300203F13002096
:101000003C1300203D130020074B1A78920709D5A6
:1010100002211A788A431A700522044B1A70044B75
:10102000043A1A707047C046780B0020FC03002079
:10103000F8030020074B1A78520709D504211A78C3
:101040008A431A700122044B1A70044B044A1A8016
:101050007047C046780B00203F1300202813002063
:10106000701700000121034A012013780B4313700D
:101070007047C046780B002030B585B0040001F001
:1010800069FEFA220500604200239200C11705F0B4
:1010900049FA0B000549020002910021019104491F
:1010A0002800009101F024FF05B030BD4808002061
:1010B000651000100221024A13780B431370704729
:1010C000780B002070B506000400094D103620682A
:1010D00001F01CFB01220021206801F099FA01CCEB
:1010E0002B000122082101F0D5FAB442EFD170BDE6
:1010F000B5100010F8B50400122001F007FBD02550
:101100008023270001262D06DB026B621037206842
:1011100001F0FCFA00222068082101F091FA320067
:1011200008CC9A406A626A61BC42F0D1F8BDC04600
:1011300010B50348FFF7DEFF0248FFF7C3FF10BDFD
:101140001004002000040020F0B5DE4657464E464D
:101150004546D023E0B5564D1B0698462A685B6885
:101160000127D340534C3B40237043466A685B6879
:1011700083B0D3403B4063704346AA685B68280055
:10118000D3403B40A3704346EA685B68D3403B4092
:10119000E370FFF7AFFF484E3000FFF793FF434681
:1011A00058683368D840454B38409C4618704346D1
:1011B00059687368D94063463940597043465A6844
:1011C000B3680191DA4063463A409A704346F16849
:1011D0005B68CB4061463B40CB70394909688C461F
:1011E000384988460968894621780F008B4679423C
:1011F000794149428A466146574639408C46411EEC
:101200008A46494657463940894661788A460029C8
:101210003FD1DA460199002938D10190A078002801
:1012200031D15046002A2BD1019AE17800291DD0F6
:1012300003218C46002B32D1634621490B60002AE2
:101240001AD13000FFF756FF2800FFF73BFF434657
:101250001A681B4B920019681B4B9B18585C03B013
:10126000F0BCBB46B246A946A046F0BD002B13D049
:1012700003239946002816D143464A461A60E0E700
:1012800002218946D1E702218C46CBE7012189461C
:10129000C4E701218C46BDE70028D0D0CCE71A0076
:1012A00003239946C8E76346054A1360E4E7C0464E
:1012B00000040020A40E002010040020A80E00202E
:1012C000FC0D0020AC0E0020200400200421024A66
:1012D00013780B4313707047780B002010B5024948
:1012E00008F072F810BDC046CD120010F8B5574690
:1012F0004E464546DE4680230422E0B59F4DA04C75
:10130000184328702F782378FFB2934323702378F3
:10131000023A934323702F702378207899462B78D4
:1013200029782A78DB0992069C46D30F9A462B78B7
:10133000944EDB06DB0F9B46012332688007934007
:1013400098464B464906C00FC90F5B0700D5B3E06E
:10135000D02342461B069A610123726893400028FD
:1013600000D0B3E0D020000683610120B36898402C
:101370006346002B00D0B3E0D0231B069861012008
:10138000F3689840002900D0B3E0D02109068861B5
:1013900001213369D022994053461206002B00D018
:1013A000B3E09161012273699A405B46002B00D142
:1013B000B3E0D0231B065A61012223781343237024
:1013C0002378DB0700D4B3E0D02380221B06D200B1
:1013D0005A612D20002101F0F7FE0122237893436A
:1013E00023702378DB0700D4C2E0D02380221B06C1
:1013F000D2005A612D20002101F0E6FE01203F01BC
:10140000FFB22F70237823782F7829782A782B78C9
:10141000B5684906A840D0259206DB06FF09C90F2A
:10142000D20FDB0F2D06002F00D09FE0A861012016
:10143000F568A840002900D094E0D0210906886111
:10144000012130698140002A00D087E0D0221206B5
:101450009161012271698A40002B00D17AE0D0238A
:101460001B065A6101222378134323702378DB077C
:101470006AD5D02380221B06D2005A612D2000217C
:1014800001F0A2FE01222378934323702378DB0727
:1014900054D5D02380221B06D2005A612D20002172
:1014A00001F092FE2A20002101F08EFEF0BCBB4626
:1014B000B246A946A046F8BDD02342461B065A6153
:1014C000012372689340002800D14BE7D02000062A
:1014D00043610120B36898406346002B00D14BE77D
:1014E000D0231B0658610120F3689840002900D1E1
:1014F0004BE7D0210906486101213369D022994088
:1015000053461206002B00D14BE75161012273694B
:101510009A405B46002B00D04BE7D0231B069A6114
:1015200001222378134323702378DB0700D54BE790
:10153000D02380221B06D2009A614AE7D023802262
:101540001B06D2009A61A9E7D02380221B06D20095
:101550009A6193E7D0231B069A6183E7D022120693
:10156000516176E7D0210906486169E768615EE765
:10157000D02380221B06D2009A613BE77C0B00201F
:10158000800B0020300400200422F0B557464E4660
:101590004546DE46A04CE0B52378A04E9343237029
:1015A0002378023A934323703070237807009A46D9
:1015B00020788846337831783278DB0992069C4669
:1015C000D30F9B46337883B0DB06DB0F01930123F7
:1015D000934D80072A684906934099465346C00FA9
:1015E000C90F5B0700D5B4E0D0234A461B069A61B9
:1015F00001236A689340002800D0B4E0D0200006A0
:1016000083610120AB6898406346002B00D0B4E0B2
:10161000D0231B0698610120EB689840002900D078
:10162000B4E0D0210906886101212B69D0229940BC
:101630005B461206002B00D0B4E0916101226B6979
:101640009A40019B002B00D1B4E0D0231B065A61C5
:1016500001222378134323702378DB0700D4B4E0FE
:10166000D02380221B06D2005A612D20002101F0D8
:10167000ABFD01222378934323702378DB0700D44A
:10168000C3E0D02380221B06D2005A612D20002106
:1016900001F09AFD01203F01FFB2377023782378D3
:1016A0003778317832783378AE684906B040D02642
:1016B0009206DB06FF09C90FD20FDB0F3606002F9B
:1016C00000D0A0E0B0610120EE68B040002900D059
:1016D00095E0D02109068861012128698140002A0E
:1016E00000D088E0D02212069161012269698A4007
:1016F000002B00D17BE0D0231B065A610122237806
:10170000134323702378DB076BD5D02380221B067D
:10171000D2005A612D20002101F056FD01222378CC
:10172000934323702378DB0755D5D02380221B06F3
:10173000D2005A612D20002101F046FD40460021D3
:1017400001F042FD03B0F0BCBB46B246A946A0463C
:10175000F0BDD0234A461B065A6101236A689340B4
:10176000002800D14AE7D020000643610120AB6881
:1017700098406346002B00D14AE7D0231B065861EE
:101780000120EB689840002900D14AE7D0210906E2
:10179000486101212B69D02299405B461206002B3B
:1017A00000D14AE7516101226B699A40019B002BED
:1017B00000D04AE7D0231B069A6101222378134305
:1017C00023702378DB0700D54AE7D02380221B064D
:1017D000D2009A6149E7D02380221B06D2009A6189
:1017E000A8E7D02380221B06D2009A6192E7D0237B
:1017F0001B069A6182E7D0221206516175E7D0215B
:101800000906486168E770615DE7D02380221B0606
:10181000D2009A613AE7C046800B00207C0B002082
:1018200030040020D023F0B5C646D04E1B0635004C
:1018300034000127984600B51C35206800F066FF8B
:101840003A0008CC9A40130042465362AC42F4D1AD
:101850000A2000F05BFF80234246DB0053620F202A
:1018600001F0CAFC0F2001F0C7FC0422C04CC14D9E
:101870002378934323702378023A934323703023D1
:101880002B7023782378287829782A782B784906B2
:10189000DB06DB0F9C46B36892069F40C0094346B7
:1018A000C90FD20F002800D09DE101209F61F3688D
:1018B0009840002900D09DE1D021090688610121CE
:1018C00033699940002A00D09DE1D022120691612F
:1018D000012273699A406346002B00D19DE1D02319
:1018E0001B065A6101222378134323702378DB07F8
:1018F00000D49DE1D02380221B06D2005A612D2006
:10190000002101F061FC01222378934323702378A6
:10191000DB0700D4E6E1D02380221B06D2005A6107
:101920002D20002101F050FC0021934801F04CFCD7
:10193000042223780127934323702378023A9343A8
:10194000237030232B7023782378287829782A78FD
:101950002B784906DB06DB0F9C46B36892069F4056
:10196000C009C90FD20F002800D0B7E1D02000066F
:1019700087610120F3689840002900D0AAE1D021B6
:1019800009068861012133699940002A00D09DE150
:10199000D02212069161012273699A406346002B9E
:1019A00000D18FE1D0231B065A6101222378134313
:1019B00023702378DB0700D47EE1D02380221B062E
:1019C000D2005A612D20002101F0FEFB0122237874
:1019D000934323702378DB0700D467E1D023802270
:1019E0001B06D2005A612D20002101F0EDFB64207E
:1019F000002101F0E9FB042223780127934323709F
:101A00002378023A9343237030232B702378237872
:101A1000287829782A782B784906DB06DB0F9C4644
:101A2000B36892069F40C009C90FD20F002800D0AA
:101A300038E1D020000687610120F3689840002932
:101A400000D02BE1D021090688610121336999403A
:101A5000002A00D01EE1D022120691610122736992
:101A60009A406346002B00D110E1D0231B065A6137
:101A700001222378134323702378DB0700D4FFE08F
:101A8000D02380221B06D2005A612D20002101F0B4
:101A90009BFB01222378934323702378DB0700D438
:101AA000E8E0D02380221B06D2005A612D200021BD
:101AB00001F08AFB042223780127934323702378C3
:101AC000023A9343237020232B70237823782878BD
:101AD00029782A782B784906DB06DB0F9C46B36809
:101AE00092069F40C009C90FD20F002800D0BDE068
:101AF000D020000687610120F3689840002900D0BB
:101B0000B0E0D02109068861012133699940002A9B
:101B100000D0A3E0D02212069161012263467169D0
:101B20008A40002B00D195E0D0231B065A61012288
:101B30002378134323702378DB0700D484E0D02379
:101B400080221B06D2005A612D20002101F03CFBAF
:101B500001222378934323702378DB0700D46DE0C0
:101B6000D02380221B06D2005A6107E030040020F7
:101B7000800B00207C0B0020681000002D2000212D
:101B800001F022FB2A212820FFF7FEFC7F232A7880
:101B90002A21134040222B702B7893432B702B78F3
:101BA000203A93432B702B78103A934308222B70E2
:101BB0002B78134304222B702B78134302222B70B3
:101BC0002B7893432B702B78013A93432B70287812
:101BD000C0B2FFF7D9FCCD210120C900FFF7D4FC2A
:101BE00080BCB846F0BD01205F61F36898400029D1
:101BF00000D161E6D021090648610121336999408D
:101C0000002A00D161E6D0221206516101227369D7
:101C10009A406346002B00D061E6D0231B069A61F0
:101C200001222378134323702378DB0700D561E674
:101C3000D02380221B06D2009A6160E6D023802246
:101C40001B06D2009A6199E7D02380221B06D2009E
:101C50009A6179E7D0231B069A6168E7D0221206C1
:101C600051615AE7D021090648614DE7D0200006AE
:101C7000476140E7D02380221B06D2009A6115E716
:101C8000D02380221B06D2009A61FEE6D0231B06D9
:101C90009A61EDE6D02212065161DFE6D0210906F5
:101CA0004861D2E6D02000064761C5E6D0238022F5
:101CB0001B06D2009A6196E6D02380221B06D20032
:101CC0009A617FE6D0231B069A616EE6D022120647
:101CD000516160E6D0210906486153E6D020000634
:101CE000476146E6D02380221B06D2009A6117E6A0
:101CF0000422F8B5A04C57464E464546DE462378AA
:101D0000E0B513430222237023789C4E9343237043
:101D100002000F239A4332702378070099462078F7
:101D2000337831783278DB0992069C46D30F9A4695
:101D30003378934DDB06DB0F9B4601232A6880072F
:101D4000934098464B464906C00FC90F5B0700D524
:101D5000AFE0D02342461B069A6101236A68934094
:101D6000002800D0AFE0D020000683610120AB68DE
:101D700098406346002B00D0AFE0D0231B0698614B
:101D80000120EB689840002900D0AFE0D02109067F
:101D9000886101212B69D022994053461206002BFD
:101DA00000D0AFE0916101226B699A405B46002B45
:101DB00000D1AFE0D0231B065A61012223781343E0
:101DC00023702378DB0700D4AFE0D02380221B06EA
:101DD000D2005A612D20002101F0F6F9012223786A
:101DE000934323702378DB0700D4BEE0D023802206
:101DF0001B06D2005A612D20002101F0E5F90120D7
:101E00003F01FFB237702378237837783178327802
:101E10003378AE684906B040D0269206DB06FF094B
:101E2000C90FD20FDB0F3606002F00D09BE0B06148
:101E30000120EE68B040002900D090E0D0210906D2
:101E40008861012128698140002A00D083E0D022E6
:101E500012069161012269698A40002B00D176E067
:101E6000D0231B065A610122237813432370237861
:101E7000DB0766D5D02380221B06D2005A612D20B5
:101E8000002101F0A1F901222378934323702378E4
:101E9000DB0750D5D02380221B06D2005A612D20AB
:101EA000002101F091F9F0BCBB46B246A946A0461C
:101EB000F8BDD02342461B065A6101236A6893404D
:101EC000002800D14FE7D020000643610120AB6815
:101ED00098406346002B00D14FE7D0231B06586182
:101EE0000120EB689840002900D14FE7D021090676
:101EF000486101212B69D022994053461206002BDC
:101F000000D14FE7516101226B699A405B46002B7B
:101F100000D04FE7D0231B069A6101222378134398
:101F200023702378DB0700D54FE7D02380221B06E0
:101F3000D2009A614EE7D02380221B06D2009A611C
:101F4000ADE7D02380221B06D2009A6197E7D02309
:101F50001B069A6187E7D022120651617AE7D021E9
:101F6000090648616DE7706162E7D02380221B0695
:101F7000D2009A613FE7C046800B00207C0B002016
:101F8000300400207F22164B70B51C7808252240B3
:101F900040241A701A78A2431A701A78203CA2437F
:101FA00010241A701A78224301241A701A782040DB
:101FB000AA43C000024304201A701A782140890005
:101FC00082430A4302211A701A788A431A701A78D7
:101FD0002831A2431A701878C0B2FFF7D5FA70BD45
:101FE0007C0B0020F0B54E46DE4645465746802322
:101FF0008146E0B5B04E1943317030782A2183B064
:10200000C0B2FFF7C1FA4B461B789846002B00D1AF
:102010004BE10125A94CAA4FB7E0D0235A461B0635
:102020009A612B007A689340002800D0DEE0D0202F
:10203000000683612800BB6898406346002B00D0EF
:10204000DEE0D0231B0698612800FB689840002939
:1020500000D0DEE0D021090688612900D0223B694A
:1020600012069940009B002B00D0DEE091612A000F
:102070007B699A40019B002B00D0DEE0D0231B0639
:102080009A6101222378134323702378DB0700D45D
:10209000DEE0D02380221B06D2005A612D200021D1
:1020A00001F092F82378AB4323702378DB0700D448
:1020B000F5E0D02380221B06D2005A612D2000219A
:1020C00001F082F843461B01DBB23370237823789A
:1020D00030783178327849069206D30F98463378B3
:1020E000BA68DB06DB0F9A462B00C0099340C90F84
:1020F000002800D0C9E0D020000683612800FB68DA
:102100009840002900D0BCE0D02109068861290050
:102110003B69D022994043461206002B00D0AEE026
:1021200091612A007B699A405346002B00D095E0CC
:10213000D0231B069A61012223781343237023784E
:10214000DB0700D495E0D02380221B06D2005A6121
:102150002D20002101F038F82378AB432370237839
:10216000DB0700D495E0D02380221B06D2005A6101
:102170002D20002101F028F801239C46E1444B4624
:102180001B789846002B00D18FE00422237813435C
:1021900023702378023A9343237042460F239A43D5
:1021A0003270237820789A46337831783278DB0998
:1021B00092069C46D30F009333783A68DB06DB0F18
:1021C00001932B0093409B46534680074906C00F5E
:1021D000C90F5B0700D420E7D0235A461B065A617B
:1021E0002B007A689340002800D120E7D020000619
:1021F00043612800BB6898406346002B00D120E76C
:10220000D0231B0658612800FB689840002900D1A4
:1022100020E7D021090648612900D0223B69120637
:102220009940009B002B00D120E751612A007B6977
:102230009A40019B002B00D120E7D0231B065A6156
:1022400001222378134323702378DB0700D520E78E
:10225000D02380221B06D2009A611FE7D0231B06E1
:102260005A6101222378134323702378DB0700D5BA
:1022700069E7D02380221B06D2009A6168E751618A
:102280004FE7D0210906486141E7D02000064361AD
:1022900034E7D02380221B06D2009A6168E7D0235E
:1022A00080221B06D2009A6108E703B0F0BCBB464F
:1022B000B246A946A046F0BD7C0B0020800B002052
:1022C00030040020F0B54E464546DE465746E0B5A0
:1022D00003788146984683B0002B00D14CE101255C
:1022E000A94CAA4FAA4EB7E0D0235A461B069A61C2
:1022F0002B0072689340002800D0DEE0D02000065A
:1023000083612800B36898406346002B00D0DEE06C
:10231000D0231B0698612800F3689840002900D05C
:10232000DEE0D021090688612900D0223369120637
:102330009940009B002B00D0DEE091612A00736978
:102340009A40019B002B00D0DEE0D0231B069A614F
:1023500001222378134323702378DB0700D4DEE0C7
:10236000D02380221B06D2005A612D20002100F0CC
:102370002BFF2378AB4323702378DB0700D4F5E0F1
:10238000D02380221B06D2005A612D20002100F0AC
:102390001BFF43461B01DBB23B7023782378387860
:1023A00039783A7849069206D30F98463B78B26856
:1023B000DB06DB0F9A462B00C0099340C90F0028AB
:1023C00000D0C9E0D020000683612800F36898405F
:1023D000002900D0BCE0D0210906886129003369BA
:1023E000D022994043461206002B00D0AEE0916106
:1023F0002A0073699A405346002B00D095E0D02301
:102400001B069A6101222378134323702378DB078C
:1024100000D495E0D02380221B06D2005A612D20E3
:10242000002100F0D1FE2378AB4323702378DB0733
:1024300000D495E0D02380221B06D2005A612D20C3
:10244000002100F0C1FE01239C46E1444B461B786D
:102450009846002B00D18FE0042223781343237089
:102460002378023A9343237042460F239A433A70EB
:10247000237820789A463B7839783A78DB099206B7
:102480009C46D30F00933B783268DB06DB0F019349
:102490002B0093409B46534680074906C00FC90F47
:1024A0005B0700D420E7D0235A461B065A612B0055
:1024B00072689340002800D120E7D02000064361D5
:1024C0002800B36898406346002B00D120E7D02352
:1024D0001B0658612800F3689840002900D120E7C6
:1024E000D021090648612900D0223369120699409B
:1024F000009B002B00D120E751612A0073699A40AC
:10250000019B002B00D120E7D0231B065A6101223A
:102510002378134323702378DB0700D520E7D023EB
:1025200080221B06D2009A611FE7D0231B065A6146
:1025300001222378134323702378DB0700D569E752
:10254000D02380221B06D2009A6168E751614FE7D1
:10255000D0210906486141E7D0200006436134E7F5
:10256000D02380221B06D2009A6168E7D023802204
:102570001B06D2009A6108E703B0F0BCBB46B24626
:10258000A946A046F0BDC046800B00207C0B002071
:1025900030040020D0231B06F0B51E68C646731E0B
:1025A0009E41734230261E40164B00249C46164B1B
:1025B00007270F25984600B56644E00803003A0057
:1025C00008339B009B5922409200D34029001940B8
:1025D0001D4210D00B0093401A003C300B4B800082
:1025E000C250D02342461B061B689B009B58002B01
:1025F00001D02000984701341E2CDED180BCB846A3
:10260000F0BDC04600410140840800200040014068
:102610000A4B80009C4604236044002901D00C230F
:102620000821002A00D10B00026853400C221A40F6
:1026300080235B01184302607047C04604C001401C
:10264000D0231B061B6830B50500581E83410F4878
:102650005C42844607203023284023408000EC0859
:10266000814020000A4D3C3063448000A400415169
:102670001B19002A04D0802292011343196030BD37
:10268000C022920113431960F9E7C046004101409E
:102690000040014070B50600D02000060468F5082F
:1026A000601E844130206442044014488446072060
:1026B0003040800081402800114E3C30644480004E
:1026C000AD0081516419002A12D080229201144376
:1026D0002160D022120612680A49920053500D2040
:1026E000094901F089FB01210D2001F063FB70BD58
:1026F000C022920114432160EBE7C0460041014033
:102700000040014084080020952500100123D022BC
:102710008340120693629361094A830094464022E3
:1027200063441968C0004A40C02111408022520110
:1027300013431960034B9C46052360444360704774
:1027400004C001400040014070B5EFF3108C72B638
:102750000D4D2B68002BFCD0BFF35F8F0724CB08F7
:10276000C618C05C01230C40A3401C000440034277
:1027700007D103433370BFF35F8F2C608CF3108855
:1027800070BD100001F094F92C0100D0F8B5474657
:10279000CE46884680B5EFF3108C72B6214D2C687A
:1027A000002CFCD0BFF35F8F9A422CD8D4080727A7
:1027B000055D061901241740BC402C421FD007219B
:1027C0000127894609E0D408055D06194C46390001
:1027D0001440A1400C00294211D001329342F2D2A0
:1027E00001204042BFF35F8F00220E4B1A608CF332
:1027F000108800280FDBC0BCB946B046F8BD2C439A
:1028000010003470EEE7BFF35F8F00232B608CF372
:102810001088012040424346002BECD0089801F07C
:1028200047F9C0462C0100D0024B18688007C00F42
:102830007047C04600C006400021044B044ABFF365
:102840005F8F02C39342FAD17047C046000100D0A7
:10285000800100D0044A1078431CDBB2172B00D94A
:10286000102313707047C0464804002000B5054B84
:1028700083B00100009318221F230348FFF786FF4F
:1028800003B000BD80970010F80D002083680B484E
:1028900010B5844661446244090112019A1859181E
:1028A00054684B6801209C4201D802D00020C0B27D
:1028B00010BD12680B689A42F9D8F7E7FFFFFF0FC7
:1028C00010B508000B690C009847002802D020685A
:1028D000616810BDE06000210020FAE70A4B19682A
:1028E000EFF3108072B60A68002AFCD0BFF35F8F46
:1028F0001B68BFF35F8F00221A6080F3108840BF0F
:10290000002000217047C046F0120020F8B557465D
:102910004E464546DE46E0B599460CAB1C780DABFD
:102920001B78060090469A460768002C11D1BC7BA4
:10293000002C42D065003B682D19033D59194B7896
:10294000BB73002B00D1FB7300238B704B700B709B
:1029500004E065003B682D19033D5919B2682A4B04
:1029600094464246E3181B0163441A604A465A6083
:102970000A9A9A600B9ADA6000238B704B700B7086
:102980007B7B9B46002B2BD022005946B8687B6886
:1029900098473A68002816D05B4658465B005B446F
:1029A0005519033BA870D118D35C002B00D06B7075
:1029B0005B460C707B73A34513D0F0BCBB46B2469C
:1029C000A946A046F8BD5B465B005B44033BD318B9
:1029D0009C705119525D002A00D05A705B460B70F2
:1029E0007C7342464B46307D00F054FD051E06D0F8
:1029F0005346002B03D12100306800F0A1FF0E9B4D
:102A0000002BDAD01D70D8E7FFFFFF0FF0B5DE46D0
:102A10004E46574645460023E0B58DB00A936B4BB2
:102A20008200D3580B90994600239B464B46079350
:102A300000F0D0FC079C06000F006268EFF31085E1
:102A400072B61368002BFCD022000794BFF35F8F8F
:102A50002468637B9946002B67D092685C4B904654
:102A60004B441B01984443461A685B6810001900E8
:102A7000801BB94100295FDD0B9800F00BFD00239E
:102A80000026984600279A46079C6368BFF35F8F2D
:102A90005A461A6085F310885346002B08D1002847
:102AA000C6D10DB0F0BCBB46B246A946A046F0BDAB
:102AB0000A9B414618024B461843D047089009919B
:102AC0006268EFF3108572B61368002BFCD0079490
:102AD000BFF35F8F0899099A002A48DB114303D09E
:102AE000079B1B69002B5DD1079B1B68D97B0029C5
:102AF00007D04A00521819688C4649466244033A86
:102B000051704A46DA734B46079A013BD168CA5C5A
:102B10000132CA545B46079A13615368BFF35F8F53
:102B20005A461A6085F3108882E7002300269846EB
:102B300000279A460020A7E7002901D100289BD151
:102B40000021200000F07EFE43461E685F689B68FF
:102B5000079A9A464346DB689846D3684B44013B44
:102B60001B780A931B020343136100208CE723693F
:102B7000002BB9D033003C005B1A94411A002300AB
:102B8000A74219D89F421BD05946049101210391B5
:102B90004946029141460191514607980091FFF73D
:102BA000B5FEB7E700F016FC089A099B06000F0077
:102BB00092197B419942E5D901225242D317E3E7AA
:102BC0009642E1D901225242D317DDE7D01200200C
:102BD000FFFFFF0FF8B557464E464546DE46E0B5C7
:102BE000404D81468A466A68EFF3108872B61368D2
:102BF000002BFCD0BFF35F8F2E68B47B002C39D044
:102C0000670033683F19033FDB195A78B273002A13
:102C100000D1F273A968344A8C464946A2181201C1
:102C20006244116051465160304991600021D16089
:102C3000997059701970737B9B46002B35D0220018
:102C40001900B068736898473268002820D05B4646
:102C500058465B005B44D719033BB870D118D35C6E
:102C6000002B00D07B705B460C7073735C451DD0ED
:102C7000002626E06B68BFF35F8F1C6088F3108826
:102C800001204042F0BCBB46B246A946A046F8BD72
:102C90005B465B005B44033BD3189C70D119D25D4B
:102CA000002A00D05A705B460B7074734A46534634
:102CB000287D00F0EFFB061EDAD02100286800F026
:102CC0003FFEEB681B19013B19786B68BFF35F8F00
:102CD00000221A6088F310880020002ED2D108024A
:102CE0002043CFE74C040020FFFFFF0FDD2800103A
:102CF00010B5124C6368002B04D00A21104800F074
:102D000057FC10BD23000F4A1021206800F0B8FCCA
:102D1000032000F053FB032000F02CFC03200A49A1
:102D200000F072FBFFF796FD084B9C4603236044BE
:102D30002375074B80006060DC60DEE74C040020F8
:102D4000F01200208D2800100D2A001040000034E1
:102D5000D0120020004870474C040020F0B55746C0
:102D60004E464546DE46E0B585B0019310AB1B7874
:102D70000600039300239A46984600927268EFF388
:102D8000108972B61368002BFCD0BFF35F8F3568D3
:102D9000AC7B002C49D067002B683F19033FDB193F
:102DA0005A78AA73002A00D1EA73B1684F4A8C4658
:102DB00000980199A21812016244106051600E99A6
:102DC00091600F99D16042469A705A701A706B7B6D
:102DD0009B46002B45D022001900A8686B689847D5
:102DE0002A68002830D05B4658465B005B44D71900
:102DF000033BB870D118D35C002B00D07B705B46CE
:102E00000C706B735C452DD0F3681B19013B18786F
:102E10007368BFF35F8F42461A6089F31088534688
:102E2000002B2CD10002204307E07368BFF35F8FB3
:102E30001C6089F310880120404205B0F0BCBB46FD
:102E4000B246A946A046F0BD5B465B005B44033B2F
:102E5000D3189C70D119D25D002A00D05A705B46FD
:102E60000B706C73307D009A019B00F013FB82465F
:102E70000028C9D02100306800F062FDC4E7039B40
:102E8000002B30D00E9B00200F99984703000400C0
:102E90000D000B4327D000290DDA0098019902009C
:102EA0000B00121BAB41994213D818D0009201932A
:102EB000039B9A4662E700F08DFA02000B00A4180B
:102EC0005D4100940195A94203D8F1D100998A424D
:102ED000EED901235B42DC1700930194E8E70099E7
:102EE0009142E3D9F5E70020A7E7C046FFFFFF0FB7
:102EF000F0B54E464546DE465746E0B585B01099DA
:102F0000050089461100194300D1ECE0D8170400F0
:102F10005440260004005C4001002700361A8F410F
:102F200049460E980A600F9A4B604A618D600861AD
:102F300000F050FA02000B00B6185F4100960197AE
:102F4000B94200D9DDE000D1D7E00023A8469B4676
:102F50001F0043465A68EFF3108A72B61368002BBD
:102F6000FCD0BFF35F8F43461E68B47B002C00D1BA
:102F70008BE063001B19033B1A00944603933368EC
:102F800063445A78B273002A00D1F27341468968CB
:102F9000604A8C4600980199A218120162441060A0
:102FA00051605D4991604946D1605A469A705A70A5
:102FB0001A70757B002D00D185E022002900B068D1
:102FC000736898473268002800D171E003996B005C
:102FD0005B195118033B8D70D018D35C002B00D0C7
:102FE00089E0047075733E00AC4200D16CE043464A
:102FF0004246DB6852681B19013B1B78BFF35F8FA9
:10300000594611608AF31088002E0CD101261B024C
:103010001C434B463000DC6005B0F0BCBB46B246FA
:10302000A946A046F0BD4846036998470700031E1D
:1030300001D10024EDE74A461468556822002A436E
:1030400065D0002D0BDA0098019902000B00121BCD
:10305000AB41994213D822D00092019379E700F056
:10306000B9F902000B00A4185D4100940195A94232
:1030700005D800D06DE700998A4200D869E701239E
:103080005B42DC170093019463E75B68BFF35F8FDB
:103090001C608AF31088012400266442B9E7009975
:1030A0009142D9D901235B42DC170093019450E788
:1030B0006B005B19033B0398D3189C701118125CCA
:1030C000002A15D10D7074734346187D009A019B38
:1030D00000F0E0F9061E00D189E743462100186898
:1030E00000F02EFC83E7012600270122002317E7CA
:1030F0005A700D70E7E74B7073E700998A4200D869
:1031000023E701235B42DC17009301941DE71E00B7
:1031100000247EE7FFFFFF0FC1280010F0B5040078
:103120000D0006267642F717C64636196F4100B5E0
:103130008F4213D810D000F04DF932003B00121A24
:103140008B41002B14DC002B37D02900200000F02D
:103150004BF980BCB846F0BD8642ECD9002600276A
:1031600000F038F932003B00121A8B41002BEADDE7
:1031700030003900FFF72EFD0028E6DB00239846DB
:10318000BC460F4A0F4F7B6A9C4504D8B96A8E42F1
:10319000DBD99C45D9D11168EFF3108072B60B686A
:1031A000002BFCD0BFF35F8F1368BFF35F8F4146E6
:1031B000196080F3108820BFE5E7002AC5D0D7E763
:1031C000F01200200040054070B504000D0000F032
:1031D00001F902000B0020002900801859418B42A0
:1031E00005D802D0FFF79AFF70BD8242FAD90120BC
:1031F0004042C117F6E7C04670B5060000F0EAF895
:10320000FA2204000D00002330000021920003F098
:1032100089F9001969418D4205D802D0FFF77EFF78
:1032200070BD8442FAD901204042C117F6E7C0467A
:10323000F8B5CE46474680B506000C00FFF7CAFC3D
:1032400000280CDC2D4B0020596A8C4203D89B6A65
:103250000130B34245D3C0BCB946B046F8BD20BF2B
:10326000274D6A68EFF3108772B61368002BFCD005
:10327000BFF35F8F2B68C1B29C465B7B8B4235D01E
:10328000FF2303405A0091466246126899449046D3
:103290004A464244033A9278002A1DD0EA68000A5E
:1032A00090464344013B1B78C0B2834221D06B68F7
:1032B000BFF35F8F00221A6087F310880F4A002047
:1032C000536A9C42C7D8926A0130B242C3D2E01A14
:1032D000421E9041C0B2BEE72B699842E7D12A61F5
:1032E000E5E7601A431E9841C0B2B4E7FF230340EC
:1032F000D4E7604600F024FBD9E7C0460040054013
:103300004C040020F0B5D6464F464646C0B5EFF314
:1033100005833F22134018001038EFF3108C72B66B
:10332000204D2A68002AFCD0BFF35F8F01221100D4
:1033300081401D4C884661631C4917000E788A46FF
:103340003100C1400F400A4209D1BFF35F8F2F60A7
:103350008CF31088E0BCBA46B146A846F0BD1449CB
:103360008200646A51588C420FD3124BD2584346A4
:103370009E4353461E70BFF35F8F00232B608CF378
:103380001088002AE6D09047E4E70B4A9B0090465D
:1033900043441A681A60BFF35F8F00232B608CF3DD
:1033A0001088D7E7280100D00040054040130020D6
:1033B000FC120020E80C0020D03F054010B50100B1
:1033C000024A0348FFF7C0F910BDC0469C970010A1
:1033D0002E130020034B596A0A00986A596A8A42E0
:1033E000FAD1704700400540064A536A9942FCD81A
:1033F00007D1044B02E05A6A914202D19A6A824292
:10340000F9D370470040054070B504000D00EFF39C
:10341000108672B61A4A1368002BFCD0BFF35F8F78
:10342000002D1BD0200000F0DFFC164981420AD09D
:10343000200000F0E1FC0121200000F0BBFC012392
:10344000A340114A1360114BA400E550BFF35F8FF6
:1034500000220B4B1A6086F3108870BD0B4BA20044
:10346000D5500122A2400A4920000B7893430B70EB
:10347000044900F0EBFC0021200000F09BFCE5E794
:10348000280100D00533001038600540E80C00200A
:1034900040130020F0B54F46D6464646C0B507005B
:1034A0002F4C616A0D00A66A616AA942FAD18B426B
:1034B00008D805D00120E0BCBA46B146A846F0BD08
:1034C000B242F7D9EFF3108A72B626480168002994
:1034D000FCD0BFF35F8F0125BD402349204C8846B7
:1034E000097889462943C9B28C464146604608702E
:1034F000391D1E48890065630A51B9000B50216AC5
:103500000020294219D0616A0800A66A616A8142D6
:10351000FAD18B4219D801D1B24216D8CC451DD070
:103520000F4B1F201D625D6301230740BB40104A03
:103530001E38136043464A461A70BFF35F8F00225D
:10354000084B1A608AF31088B5E70020BFF35F8F3D
:103550000022044B1A608AF31088ACE70120ECE7E4
:1035600000400540280100D040130020FC1200203C
:1035700080E200E0EFF3108C72B60A490B68002B72
:10358000FCD0BFF35F8F01238340074A07481362D3
:1035900002789A430270BFF35F8F00230B608CF3B5
:1035A00010887047280100D00040054040130020DB
:1035B000024B9C4661448900016070474000003422
:1035C00010B50400FFF746F901002000FFF7F0FFF7
:1035D000FF232371BFF35F8F10BDC04610B50400F9
:1035E000FFF738F901002000FFF7E2FFFF23A38077
:1035F000BFF35F8F10BDC04610B504000120FFF778
:1036000035F9044B9C46604480002060BFF35F8F17
:1036100010BDC0464000003470B50500140016000F
:10362000002915D00C00002A12D080686B689847DA
:10363000296800280ED073009B196200033B121901
:10364000CB18033A9C7088188A5C002A15D1067042
:10365000200070BD63001B197200033B9219CB1848
:10366000033A9E7088188A5C002A02D104703400E4
:10367000EEE75A7004703400EAE75A700670E7E724
:1036800030B583600023CCB24373013304734260CE
:103690008373C4730D000068012C06D9421C0133EA
:1036A000DBB2137003329C42F9D1FF2129404B0059
:1036B0005918002340180338437030BDF8B5CE4682
:1036C000474606000C0080B5002907D04D0003686E
:1036D0006D18033D5A195778002F04D12000C0BC43
:1036E000B946B046F8BD7900C91903398846434444
:1036F0005978894600215970517073683A00210049
:10370000806898473368002814D042469A1894700D
:1037100059195B5D002B00D053700F70270049468C
:103720003000FFF7CBFF390002003000FFF774FFD5
:103730000400D3E7424641465D19AF709A185B5CBE
:10374000002B00D06B701470E9E7C046F0B5574607
:103750004546DE464E46E0B50D006B0001685B193C
:10376000DF1E0400C85D83B00192CA1900284CD046
:1037700043001B18033BCB185E78B446002E16D1CD
:10378000019E002E3ED0E67B002E04D073009B19D4
:10379000CB18033B5D70E57300282FD100235370D5
:1037A00003B0F0BCBB46B246A946A046F0BD7200CD
:1037B0006244033A89184A78904600224A7091463A
:1037C0005A70010032002000FFF726FF4346824670
:1037D000002B07D05B0021684344033BCB185A7889
:1037E000002A16D1424651462000FFF715FF2168F6
:1037F000019BCA19002BC6D10028CFD043001B184B
:10380000033BCB1800219970C8E7019B002BBAD16C
:10381000C4E75000801803380918487883464846A2
:103820004870587041462000FFF7F6FE5946804622
:103830002000FFF743FF414602002000FFF7ECFEA7
:103840008046CFE7F0B557464546DE464E46E0B5E2
:1038500083B00191457B04006B0000685B19DF1E9B
:10386000C15DC21900294ED04B005B18033BC31841
:103870005E78B446002E18D1019E002E40D0E67B23
:10388000002E04D073009B19C318033B5D70E573D1
:10389000002931D1002328005370617303B0F0BCBC
:1038A000BB46B246A946A046F0BD72006244033A48
:1038B0008018427890460022427091465A7020004B
:1038C0003200FFF7A9FE43468246002B07D05B007B
:1038D00021684344033BCB185A78002A17D142464B
:1038E00051462000FFF798FE019B01002068C21995
:1038F000002BC4D10029CDD04B005B18033BC3186B
:1039000000209870C6E7019B002BB8D1C2E7500099
:10391000801803380918487883464846487058701C
:1039200041462000FFF778FE594680462000FFF709
:10393000C5FE414602002000FFF76EFE8046CEE73E
:1039400070B5040000292CD0437B8B422ED0056833
:1039500048004018033828188278002A21D05300E4
:103960009B18033BEA5CEE188A4202D11BE0002A56
:1039700008D053009B18033BEB185A788A42F6D1C3
:1039800042785A7000230122837043702000FFF7B1
:10399000DDFE617B02002000FFF73EFE6073012028
:1039A00000E0002070BD43783370EBE7012219007E
:1039B000FFF7CCFE60730120F4E7C0462C4B2D4A84
:1039C00070B51A602C4A2D4B2D491A6014008B6873
:1039D0009C43FBD12B4D2C4EB54208D2013E761BA9
:1039E000B60808CD984723000134B342F9D100F05E
:1039F0007DF8264A214B1A60214A9368DB43DB019C
:103A0000DD09002BF9D14022214B224C224E9A672E
:103A10005A671A67DA66B44208D223682000002B7E
:103A200020D00834FFF7DAFDB442F6D31B4E1C4C0D
:103A3000C022A168300002F0E5FDA660FEF7FCFEA2
:103A400000F038FBFFF754F9164C174EB44208D279
:103A5000013E361BB60808CC98472B0001359E4224
:103A6000F9D170BD0834FFF7ABFDB442D5D3DDE723
:103A700000E00040BFCDFBFEFE7F3C0000F00040B8
:103A800000C000402805002038050020FFFFFF018E
:103A900000F0014020050020280500200000002043
:103AA00000ED00E0380500204005002000BEFDE7E5
:103AB0000FB400B5084883B002F0DAFE049B002B77
:103AC00007D005A91800019101F08CFE034802F00F
:103AD000CFFE00BEFDE7C046C0970010D097001093
:103AE00010B50148FFF7E4FFD497001030B50C2063
:103AF00083B000F045FBFEF797FE00280ED0944BF4
:103B0000944A1A605A609A60DA601A615A619A613E
:103B1000DA611A62904A5A6203B030BD8F4CA067D6
:103B200000F082FB01228E4B1A60636C012BFCD1EA
:103B300003228C4B1A60894A936B012BFCD102241F
:103B40000121894A89480533009400F0C5FA05230C
:103B5000874A01218748009400F0BEFA864B5A68D4
:103B6000FF2A02D8802252005A608022784C7D4B76
:103B700021691201804D1A60002905D0606901F0A9
:103B8000ABFE01300138FDD1E0217B4B02201A68E9
:103B90001140802252012A431160196848400321D4
:103BA0000140116004219A681142FCD080228021DA
:103BB00092012A4309011160802252005A606F4B22
:103BC00023616F4B5968FF2900D85A600321644A6A
:103BD0006B4B116002399A681142FCD0E0201A68E0
:103BE0001040802252011A43106018684840032197
:103BF00001400220116062498A681042FCD0802294
:103C000092011343802212011A6080225D4B520000
:103C10004A6063615C4B5968FF2900D85A60802272
:103C20005A4BE1691201584D1A60002905D06069AC
:103C300001F052FE01300138FDD1E02252490B68FB
:103C40001A4080235B012B431A60802380229B0152
:103C50002B4312011A6080223E4B52004A60E361FE
:103C60004B4B5968FF2900D85A608022494B216A82
:103C70001201474D1A60002905D0606901F02CFE41
:103C800001300138FDD1E02241490B681A40802300
:103C90005B012B431A60802380229B012B4312017E
:103CA0001A60802380225B004B602A4BD202236281
:103CB000394B5968914200D25A608022374B616A71
:103CC0001201354D1A60002905D0606901F004FE2B
:103CD00001300138FDD1E0222F490B681A408023C2
:103CE0005B012B431A60802380229B012B4312012E
:103CF0001A608023DB024B60174B6362284B5A68C3
:103D0000FF2A02D8802252005A608022254BA169E6
:103D10001201234D1A60002905D0606901F0DCFD15
:103D200001300138FDD1E0221D490B681A40802383
:103D30005B012B431A60802380229B012B431201DD
:103D40001A6080235B004B600E4BA361E4E6C04623
:103D5000000E0020006CDC021BB700000080004059
:103D60003CB0004030B00040002F68590080024055
:103D700000389C1C00C0024030800040001BB7008F
:103D80003C800040405973075480004054B00040CC
:103D90006080004060B000406C8000406CB000402B
:103DA0004880004048B00040014B8000C058704738
:103DB000000E002001238340002904D0034A136031
:103DC000034A13607047034A1360FBE780E200E098
:103DD00000E100E080E100E001238340014A13603C
:103DE0007047C04600E200E0024B10309B68800044
:103DF000C058704700ED00E070B50D00EFF310867D
:103E000072B60F4A1368002BFCD0BFF35F8F0D4BC7
:103E100010309B6884001B590B4A934203D09D428B
:103E200001D0FFF75DFE074B9B681D51BFF35F8F0D
:103E3000BFF35F8F0022024B1A6086F3108870BDBB
:103E4000240100D000ED00E0CD010010F0B5DE4609
:103E500057464E464546E0B50C0083B0EFF3108A56
:103E600072B65A4A1368002BFCD0BFF35F8F102242
:103E7000914681444A46564B96009B689D59554B46
:103E800098469D4205D0A54216D0534FEB1B2F2BD1
:103E900014D94F4B9B689D51BFF35F8FBFF35F8F6A
:103EA00000224A4B1A608AF3108803B0F0BCBB466C
:103EB000B246A946A046F0BD1D00EAE701238340B3
:103EC0009B465A46454B1B681A4000925A46444B43
:103ED0001A60BFF35F8FFCF7C6F90190002803D08A
:103EE000814501D0FFF7FCFD01232A009A4313000E
:103EF0003C49DB1B5B415943090D93689C4208D147
:103F00005AE043001B189B00FB189868A04211D090
:103F10001A00062010560028F3DA009B002B05D06B
:103F20005A46314B1A602D4B1A60B2E75A462C4B59
:103F30001A60AEE706201856002821DB420011184F
:103F400089007C188846A1689960E179D9710621B9
:103F50006156997100291FDBA488F91A640524159C
:103F600044440919E0240905490D2402214399809C
:103F700012181E4B9200BF181A781870BA71CCE74D
:103F8000019800280BD1FF30907119489080174A92
:103F9000107811709871C0E7BD210902E7E7154A52
:103FA0001549D21A083A5002400D0143998013492D
:103FB00052080A43DA80B0E70620105613000028A2
:103FC000BCDA019A002AEAD14546E0E7240100D094
:103FD00000ED00E0CD0100107404002000E100E0DD
:103FE00080E100E0AAAA000080E200E0391300208E
:103FF00000BDFFFFAE04002000F0FFFF00F8FFFF50
:10400000F8B5012504000543FCF72DF9EFF3108CFA
:1040100072B6214A1368002BFCD0BFF35F8F1F4E8E
:104020002100B7681E4A1F4B891A49414B431B0D9B
:1040300059B28300F858A8421CD00623D3568B42AD
:104040001CD01223D3568B4222D01E23D3568B4230
:1040500020D02A23D35603208B4210D0124B1A783B
:104060001970A271BFF35F8F00220B4B1A608CF3A3
:104070001088F8BDB2680D48D050EFE7002043002B
:104080001B189B00D218FF239371094B9380E5E71F
:104090000120F4E70220F2E7240100D000ED00E067
:1040A00074040020AAAA000039130020CD010010DA
:1040B00000BDFFFF054B064A1360064A13605360BC
:1040C0009360D360136153619361704780808080F7
:1040D00000E400E004E400E0F0B5C646040000B5EA
:1040E0000C2090461F000E0001F0F6FB4101091A5A
:1040F0008D01691AC90009188901404601F0ECFBDD
:10410000069B3F041A0323681743002B22DB184B3E
:10411000184DE21853425A4180235B019C4612031A
:10412000154B62441A60154B1A601100AB68994335
:10413000FBD1C022231D92011A4321232660A060D7
:1041400013602368002BFCDA0823E760136080BC4F
:10415000B846F0BD3F2322681340B342D7D1A368CD
:104160001B051B0D8342D2D1E368002FCFD1EEE7B0
:104170000040FDBF00C0004000E0004000F00040F3
:104180008023024A9B000343D362704700800540AE
:1041900010B5140080221B4BD2051A6000281AD0DB
:1041A0000123194A1843194BDA61194A42401A622D
:1041B000596298628022134BD2051A601549164A3B
:1041C0001160E022D2041A60002C07D18022134B28
:1041D00012061A6010BD0D4BD861EBE763011B1B83
:1041E0009A008023121912015B049A4200D30C4AF0
:1041F0000C4B1A60054B5A608022084BD2051A609E
:10420000E8E7C04600B00540D3C007B000800540D5
:104210002D3FF84FFCFF01000820014000A00540A1
:10422000FFFFFF00BC120020AA23064A1B011360F7
:104230002F230549D360054B19605368002BFCDA26
:104240007047C0460040024000B0FA0000600240E3
:104250009A4200D2885470477047C046F8B5574616
:104260004E464546DE46E0B599460A9B07009A460B
:104270000D9B8846934615000B9E9B0710D10C9B07
:104280009E420DD29D1B14000E005D4422004B4641
:10429000013431002020B847A542F7D1B0460B9E2B
:1042A000002E27D0444675195346AA1B013E985D3F
:1042B00021004B46B847002EF6D123002C0098462B
:1042C0000D9B9B070FD55B46E51A0C9BAB420AD9A9
:1042D0004646984622004B46310020200135B8471B
:1042E0000134A845F6D82000F0BCBB46B246A9462A
:1042F000A046F8BD2C00E3E7F0B54F464646D6464B
:10430000C0B584B098460EAB1B78129F9946944670
:104310000D9C109B119EBA0725D4002E4BD19C42B8
:1043200000D3BFE001223A4092461F2C00D9B8E0EA
:104330000C9A551E302201E0202C03D001342A555E
:10434000A342F9D85246002A0DD0A6420BD9202C00
:1043500044D00C9A551E302201E0202C3ED001346E
:104360002A55B442F9D1FA064DD57A053FD4002C2E
:1043700039D10F9B102B00D179E00F9B022B00D17C
:104380008AE030230C9A012413704B46002B3FD057
:104390002D230C9A135501340C9B6246009303970E
:1043A000434602960194FFF759FF04B0E0BCBA46B9
:1043B000B146A846F0BD012215003D40AA463A424A
:1043C0002FD04A46002A02D10C323A4200D0013E98
:1043D0009C42BAD21F2CABD9202E27D92024FA0612
:1043E000DAD57A0503D4A3422DD0A6422BD00F9B59
:1043F000102B32D0022B20D0202CCDD030220C9B81
:104400001B191A700134202CC6D04B46002BBFD18B
:104410007B070DD43B07BFD520230C9A13550134DD
:10442000BAE79C429FD21F2C00D881E720249AE74C
:104430002B230C9A13550134AEE7202CACD00C9BE7
:104440001B1901343AE0631E012C92D00F9A102AF6
:104450002AD0022A2FD01C00D0E7BB060ED4202C75
:104460009AD00C9B1A19013478231370C4E7BB0649
:104470000DD478230C9A01241370BFE7202C00D1AF
:104480008AE758220C9B1B191A700134B4E7582391
:104490000C9A01241370B1E70C9A60330124137055
:1044A000ACE7202400265EE7023CBA06E9D40C9A69
:1044B00012191C00D8E70C9A9246534462221A70D3
:1044C0009AE7C04610B5002800D110BD02F080F96F
:1044D000FBE7C046F0B5DE4657464E464546E0B5DA
:1044E0009BB09B46249B89469846259B0B900C923B
:1044F0004046424619009A4601F0BFFC002800D011
:10450000D8E0012240465146774B524201F0B0FCC0
:10451000002800D0CEE0012240465146734B524263
:1045200001F090FC002800D0C4E0002200234046A7
:10453000514601F087FC002800D0B9E142465346BD
:104540000A9209938023289ADB001A400E92289A37
:104550001A4201D1062326930A9A099B1600134397
:1045600000D0C7E0289B002500261B0500D49BE156
:1045700000230D93269A0D9B9A4200DC9FE1D01AEE
:10458000431E26938023289ADB001A43002300272A
:1045900028920D93279B0024BB4200D9DC1B0223E9
:1045A000289A1A400E92289A134203D07B427B41EC
:1045B0005B421C400D9B002B07D00A9809992A00EA
:1045C000330001F0DEFB0A900991002200234046EF
:1045D000514601F037FC002805D0802000068446B3
:1045E000099961440991289A414B0B9D134004930A
:1045F000269B0A9A0293099B0394009201934946D1
:104600005B4628000C9A00F08BF90400002F62D062
:10461000289B220098061F23C0179843631C9846C6
:1046200049465B466530A8470D9B0025DA179C1864
:10463000DB0F9A465440013F01E0202D13D00AAA17
:1046400094461F23200063440A2101355E1901F0BE
:1046500043F93031317020000A2101F03DF9260084
:104660000400092EE9D805230693002304930A3396
:104670000393534605970B9F029312AB0093424658
:104680005B46494638000195FFF736FE0E9B040055
:10469000002B20D00C9BC51A279BAB421BD91E00B8
:1046A00022005B46494620200135B8470134AE421E
:1046B000F6D810E0289B42460493279B4946039373
:1046C000269B0B9802935346009201935B460C9AEB
:1046D00000F026F9040020001BB0F0BCBB46B24637
:1046E000A946A046F0BDC046FFFFEF7FFFFFEFFFEA
:1046F000FFF7FFFF734B099F9C467800400D604415
:1047000001F0CEFB704A714B01F059FB704A714BBE
:1047100001F02EFB3B03704A1B0B1A4304000D00F3
:10472000300011006D4B002201F019FB6C4A6D4BFB
:1047300001F045FB02000B002000290001F018FBEE
:1047400001F0C6FB0D9001F0ABFB674A674B04001C
:104750000D0001F034FB0022654B01F009FB01F074
:10476000B7FB644A0600644B2000290001F027FBD8
:10477000040030000D000F9601F092FB5F4A604B81
:1047800001F01DFB02000B002000290001F0E7FAF8
:1047900002000B0006000F0001F011FB32000400C4
:1047A0000D003B003000390001F0E2FA00221090C9
:1047B0001191544B2000290001F0E3FA0022524BE2
:1047C00001F0D6FA02000B002000290001F0D9FA0E
:1047D00000224E4B01F0CCFA02000B002000290011
:1047E00001F0CFFA0D008021040032003B000020D0
:1047F000C90501F0B4FA02000B002000290001F005
:10480000B7FA02000B001098119901F0BAFA0022D1
:10481000314B01F0ADFA3E4B0F9C9C4664440022A4
:10482000230501F0CCFA05000E0002000B000A98E7
:10483000099901F007FB00280AD00D9B2800013BD5
:1048400031000D930022304B01F09BFA05000E0061
:10485000C6270D992B0063318F42BF4128997F42B3
:104860000437090500D495E6334300D182E6099C5C
:10487000284A2100284B0A9801F0F2FA002808D0B3
:1048800000222100254B0A9801F0DCFA002800D014
:1048900070E6269B002B00D17CE60E9B5A1E9341AE
:1048A000269AD31A269375E6002304270D9371E602
:1048B00043460A9380231B065344099342E6002390
:1048C00026935FE601FCFFFFFB799F501344D33F23
:1048D000B3C8608B288AC63F0000F03F0000F83F55
:1048E00061436F63A787D23F71A379094F930A4051
:1048F0000000E03F1655B5BBB16B0240EF39FAFE40
:10490000422EE63F00002C400000244000001840EA
:10491000FF0300002D431CEBE2361A3F80842E413A
:10492000F0B54E46DE4657464546E0B597B0994647
:10493000209E219F229B8346984607910C923B0024
:1049400032003000390001F098FA002800D0A9E1C7
:10495000012230003900CA4B524201F073FA00289C
:1049600000D0E1E0012230003900C64B524201F094
:104970007FFA002800D0B7E0002230003900C24B97
:1049800001F076FA002800D099E0002230003900CA
:10499000BE4B01F057FA002800D090E0002200231F
:1049A0003000390001F04EFA002800D0B1E00023B9
:1049B0000D93249B5B0501D40623984608AB9C46C7
:1049C0001722002430234146624404E00134135589
:1049D0000139202C01D00929F8D888463000390047
:1049E00001F076FA4346DA00A94B05009B181A68D5
:1049F0005B680892099301F053FA02000B00300043
:104A0000390001F0ACF9089A099B01F0D8F90A9035
:104A10000B9101F081FA824601F03EFA02000B0090
:104A20000A980B9901F09BF900229A4B0A900B917E
:104A300001F01EFA002800D1C0E001239C46E244A8
:104A4000504601F029FA02000B000898099901F07C
:104A5000FFF9002802D000239A4601354346002B77
:104A60006AD008AB17269C4608956644554614E064
:104A700001235B4243440A2128009A4600F02CFFA0
:104A8000013430313719397028000A2100F024FF31
:104A9000092D00D8D0E0D0460500202CE8D10EAB7F
:104AA00098460323249A1340012B00D196E020233B
:104AB000249A01930392239A434602921EE0249B78
:104AC00058460493239B00960197039343460C9A00
:104AD000029307994B46FFF7FDFC17B0F0BCBB46AD
:104AE000B246A946A046F0BD249B5B070ED4032224
:104AF000694B24990192039123990291009358469E
:104B00004B460C9A0799FFF7A9FBE6E70422634B93
:104B1000EFE73B0032000020002101F020F90123E3
:104B200006000F000D9344E7249B0393239B0293FD
:104B3000042301935A4BE1E7280001F0B1F9020088
:104B40000B003000390001F00AF9524B0022060038
:104B50000F0001F077F90EAB984600280AD1002229
:104B6000300039004B4B01F083F9002802D1EB07EC
:104B700000D50135202C94D008AA9446172328008C
:104B800063440A2101341E1900F07EFE30312800F2
:104B900031700A2100F078FE051EEBD10323249A20
:104BA0001340012B1BD0202C00D180E70D9B002B44
:104BB00035D02D224146631C0A5579E700220A9818
:104BC0000B99344B01F03EF9002800D046E75346DC
:104BD000002B51D101239C46E2443FE72024239B34
:104BE000002BE0D00D9B002B03D1249A0C331342F1
:104BF00002D0239B013B2393239BA342D3D908AB31
:104C00009C46172230236244202C00D14FE7239981
:104C1000013413558C42C6D0202CF8D147E7249B91
:104C20005B0724D4249A2300120700D440E72022F3
:104C3000414601330A553BE75746089D202C00D1D9
:104C40002DE7220030214046002F09D00132B15417
:104C5000202A00D123E7D3431B191B18002BF5D1C1
:104C60000EAB98462E234146541C8B5482E72B22D0
:104C70004146631C0A551BE7DB0700D4EEE6A9E7B3
:104C8000FFFFEFFFFFFFEF7F65CDCD4165CDCDC1CC
:104C9000D89900100000E03FE0970010E497001062
:104CA000F0970010249B0393239B0293032301930B
:104CB000004B23E7EC970010F0B5DE464E46574612
:104CC0004546E0B59FB01C00289B91460993C94A10
:104CD000C94B8B4608901A60002900D118E20023C6
:104CE00020789A46002800D11AE226001D005C4672
:104CF0000AE02A006F1C4B46089D2100A8473D0092
:104D000001363078002870D02528F2D110239B4638
:104D1000083B9A46043B9846023B00219C46721C85
:104D2000107816000300203BDBB2102B03D8B34FE2
:104D30009B00FB589F460300303B092B32D90023D0
:104D40000A932A2868D0002398462E283ED00300D4
:104D5000683BDBB2122B1CD8A94A9B00D3589F4654
:104D6000012301321943DBE7634601321943D7E7D8
:104D7000434601321943D3E75B4601321943CFE77B
:104D8000534601321943CBE780235B007078194307
:104D900001360300253BDBB2532BAAD8994A9B006E
:104DA000D3589F4600270300B800C01901364000C1
:104DB000C018337830381A00303A0700092AF3D97E
:104DC0000A901800002398462E28C0D180237078BE
:104DD000DB0019430300303B721C092B00D8A1E112
:104DE0002A2800D1B2E11600B1E7A346AA462C005A
:104DF000D14503D801235B424B449A464B46524669
:104E000059460020089DA84720001FB0F0BCBB46B3
:104E1000B246A946A046F0BD099B40CB0A96002E9B
:104E200003DB50780993561C8DE728380143704204
:104E30000A9009935078561C85E7782800D1DFE165
:104E4000582800D14CE26F2800D14FE3622801D1ED
:104E500000F030FC10230A009A430B92692801D01D
:104E600000F0A9FC0A230C934B0500D5D0E10B9A66
:104E7000802311009B0019408B461A4200D0A1E20A
:104E8000802311005B0019408A461A4200D0B6E325
:104E900013005B0600D5EDE2130009991B0601D44F
:104EA00000F076FC08C91BB2D8171A18424092B21B
:104EB00009919346DA0F1292002B09D18023102218
:104EC0000B99DB000B4091430B91002B00D0E4E2E7
:104ED0000B9A6123920600D541230EA91F228C460E
:104EE000DBB262440A3B5F461395A34655460C9CD1
:104EF000B2460D9316000AE03033DBB2013573552C
:104F0000A74200D2EDE2202D00D1EAE20700210005
:104F1000380000F0E1FCCBB20929EDD90D9A944696
:104F20006344DBB2EAE780239B00707819430136C3
:104F30002FE77078682800D1CDE18023013619432E
:104F400027E770786C2800D1BFE180235B0019430C
:104F500001361EE7462800D19BE10722099B0491F8
:104F6000073393430A9A19000392424602920CC9EE
:104F700008980092019309912A004B462100FFF7FF
:104F8000CFFC01360500BCE62A006F1C4B46089D8D
:104F900021002520A84701363D00B2E68B0700D44A
:104FA000ADE1099B2A009A466B1C9846534601CBFB
:104FB00021009A46089F4B46C0B2B8470A9B9C46C0
:104FC0006544012B00D886E2089B4746B046260080
:104FD0004C4699463A002300013731002020C8474B
:104FE000AF42F7D1A14653463400464609930136F5
:104FF00087E6C046B94C0010B8120020F8970010A0
:105000003C98001088980010099B04CB9B464346AF
:105010000992002B00D1C6E013789C46002B00D1EA
:10502000BDE34346013B099A0133D0180A9F1300A0
:1050300001E0834203D05A780133002AF9D1099A5A
:105040000A979B1A0B9380230A00DB001A400C92EC
:10505000194204D00B9B434501D943460B930223CD
:105060001A000A400D920B4200D187E160460028E9
:1050700000D168E10C9B002B00D10DE1A844C24691
:10508000099B57465B1B9846089BB2462A002600A0
:105090004C46994609E023003100551CC847434659
:1050A000585D002800D126E12A009742F3D1A1469D
:1050B0003D00340056460D9B002B00D043E15B467B
:1050C000013609931DE6099B1A0008CA9246002B77
:1050D00048D0212211438B460EA884461F216144EB
:1050E000099500220F27A4460D0002E0202A0CD0CB
:1050F0000B003C001C4020003730092C00D807383A
:105100000132A85419090F2BF0D86446099D32E0EA
:10511000DC4B2078089300239A46002800D0E4E571
:10512000002465E6434606000A9F9800C018013235
:10513000400080191678030030003038303B0928D1
:10514000F3D93000984616000A9700E6099B02360C
:1051500004CB9046D2434046D21710408046099374
:105160003078F4E510220800904311321043834652
:1051700000224905B0D55B460693082305934346B4
:105180000493102303930023029316AB0192009320
:105190002A004B4621000898FFF7AEF85346050059
:1051A00001360993ADE513789C46002B00D1F7E258
:1051B00002235B4237E7202302009A43472A04D1A7
:1051C00080231B01194302239843452801D1202342
:1051D00019430722099B0491073393430A9A190044
:1051E0000392424602920CC90898009201930991D9
:1051F0002A004B462100FFF76DF90136050080E5D6
:1052000010230C930C230A009A430B924B0503D5F1
:1052100001230B9A9A430B92692800D127E6642850
:1052200000D124E60B9A802311009B0019408B4685
:105230001A4200D066E1802311005B0019408A46C3
:105240001A4200D039E213005B0600D53CE113009E
:105250001B0600D4A6E2099B04CB1204120C934651
:1052600009935B46002B00D09AE10B9A1033110092
:1052700099430B91520500D492E100239A460B9B6F
:1052800006930A9B0593434604930C9B03930023C8
:105290000CE12023194360E6099B0A9A5B1B9846A0
:1052A0004B4691461F00B2462600089C2A003B0050
:1052B0003100A04743460135585D0028F6D14A46E3
:1052C0003400B94656460A92F5E6C0239B00B078F2
:1052D000194302365DE5C023B0781943023658E51C
:1052E0000C230A009A4314331A43103B0B920C937D
:1052F0004B058DD496E7A14634005646DBE60A9A64
:10530000012A00D853E26B1E9F18089BB046260066
:105310004C4699462A002300013531002020C84719
:10532000BD42F7D1A14634004646099B3A0001CB65
:10533000210098467D1C4B46089FC0B2B8474346A3
:1053400001360993DDE40B9B0A9AA8469A4200D8DD
:10535000B5E694466544ED1A089B4746B0462600DC
:105360004C4699463A002300013731002020C847B7
:10537000AF42F7D1A14634004646A0E60B9A0A99FF
:10538000531C914200D814E24B199B1A1F00089B32
:10539000B24626004C4699462A00230001353100CA
:1053A0002020C847BD42F7D10A9BA14601330B9389
:1053B000099B34001B7856469C466046002800D066
:1053C00058E67CE60722099B073393430132944653
:1053D0009C4462465F6809921A68FB171093119308
:1053E00010981199030053400E930B007B400F93CC
:1053F00094460E9A0F9B121A8B410E920F93FB0F3D
:105400006246129300233A439B463DD00B9A612398
:10541000920600D541230022DBB20EA90A3B8C463E
:1054200092460D9343461F32624413951596554696
:105430000E9E0F9FA24690460C9C14930CE03032B7
:10544000D2B2434601355A55BB4500D18AE1202DE1
:1054500000D18AE106000F0022000023300039004D
:1054600000F07CFAD2B2092AE9D90D9B9C4662442D
:10547000D2B2E6E7FF23099904C913401A00099143
:1054800017E5C046594200100B9A1033110099439A
:105490000B915205BAD500239A460B9B06930A9BA3
:1054A0000593434604930C9B0393129B029353462C
:1054B000019316AB2A00009321004B460898FEF793
:1054C0001BFF013605001CE4FF22099B02CB1140A3
:1054D0008B460993C5E65346454609930136FFF7C7
:1054E00010FC56465C46AA46139DD6E708230C934B
:1054F0000B910B99642800D084E60B9B5B0500D5CB
:1055000086E6B4E40722099B0733934301329446AD
:105510009C44624609921A685B6810009B4613001F
:105520005A46134307D10B9A1033110099430B913C
:10553000520500D5A1E60B9A6123920600D54123BE
:105540000022DBB20EA90A3B8C4692460D934346DD
:105550001F3262445F461295A34655460400B24688
:1055600090460C9E13930DE03032D2B24346013583
:105570005A550023BB4200D100E1202D00D100E1AB
:1055800004000F00320000232000390000F0E6F98B
:10559000D2B2092AE8D90D9B9C466244D2B2E5E713
:1055A0000B9A6123920600D54123DBB20EA90A3B78
:1055B0001F228C460D93230062445C46129517000F
:1055C00055469B46B2460C9E08E03033DBB20135AF
:1055D0007B55B4420ED3202D0CD0040031002000A6
:1055E00000F07AF9CBB20929EFD90D9A94466344B9
:1055F000DBB2ECE756465C46AA46129D3FE6099BA5
:105600001A0008CAD91713925A184A409246DA0F5C
:105610001292002B08D1802310220B99DB000B4043
:1056200091430B91002B2BD10B9A6123920600D54D
:1056300041230EAA1F279446DBB20A3B0D9567440F
:105640005D460993A3465446B2460C9E08E03033AB
:10565000DBB201357B55B4420ED3202D0CD00400B3
:105660003100200000F038F9CBB20929EFD9099AAE
:1056700094466344DBB2ECE756465C46AB460D9D70
:105680000B9B2A0006930A9B210005934346049333
:105690000C9B08980393129B013602935B4601937F
:1056A00016AB00934B46FEF727FE139B05000993AC
:1056B000FFF727FB02230C931AE7099B04CB9246C2
:1056C0001293002A08D1802310220B99DB000B4093
:1056D00091430B91002B2BD10B9A6123920600D59D
:1056E00041230EAA1F279446DBB20A3B0D9567445F
:1056F0005D460993A3465446B2460C9E08E03033FB
:10570000DBB201357B55B4420ED3202D0CD0040002
:105710003100200000F0E0F8CBB20929EFD9099A56
:1057200094466344DBB2ECE756465C46AB460D9DBF
:105730000B9B2A0006930A9B210005934346049382
:105740000C9B08980393002302935B46019316ABCE
:1057500000934B46FEF7D0FD129B050009930136DE
:10576000FFF7CFFAB44200D871E6149B54460E9668
:105770000F97AA469846159E139D8EE6A64200D81E
:10578000FBE6139B56469846AA465C46129D76E574
:1057900008C9D8171A1842400991FFF78AFB00235D
:1057A0000B9350E4099B04CB9346099359E52F00D2
:1057B000BBE50B9301E6063B0C939AE60EB401227F
:1057C00010B585B007AC08CC0100009452420448E3
:1057D0000394FFF771FA05B010BC08BC03B018477A
:1057E0005142001010B5094A0300146884B0002C1F
:1057F00008D0012200910648524203A9A047012087
:1058000004B010BD01F034F80020F9E7B812002010
:10581000C544001001480421014B1847C004002072
:1058200045580010142310B50100188804331B8854
:10583000984710BD162310B50100188802331B8845
:10584000984710BDF8B54746CE4680B50F1E19D013
:1058500014239946043304000025012698464B463C
:105860001888434621681B88984701C4431E984105
:10587000013540420640AF42F1D13000C0BCB946CC
:10588000B046F8BD0126F8E7124A936F9B0815D27F
:105890009066D166002905D0FFE7FFE7FFE7516F6B
:1058A000106F704704B580210906C21751400028C7
:1058B00000D0C84303F08CFE002104BDF0B5146E87
:1058C000556E576F166FFFF7E3FF146655665767FF
:1058D0001667F0BD000000D0114A936F9B0813D2E9
:1058E00010665166002905D0FFE7FFE7FFE7516F1B
:1058F000106F704704B5002801D00020C04303F0AA
:1059000067FE002104BDC046F0B5146E556E576F9A
:10591000166FFFF7E5FF1466556657671667F0BD0B
:10592000000000D094464E4A926F9208624601D21F
:1059300030E0C046F0B54A4EB56F6D08FCD3346E0A
:10594000756E776F366F00F025F89446444A1466FA
:105950005566576716676246F0BDC0469446404A92
:10596000926F9208624601D258E0C046F0B53C4EB4
:10597000B56F6D08FCD3346E756E776F366F00F0BF
:105980004DF89446364A1466556657671667624660
:10599000F0BDC046002B24DB11D000293EDA00B553
:1059A000C943404200D1013100F038F8C9434042B8
:1059B00000D10131DB43524200D1013300BD002A46
:1059C000EBD1002801D1002905D00020C90FC9075B
:1059D00001D1C043410800B503F0F2FD00220023CD
:1059E00000BD00B500290ADBDB43524200D1013380
:1059F00000F014F8C943404200D1013100BDC94351
:105A0000404200D10131DB43524200D1013300F06A
:105A100005F8DB43524200D1013300BD002923D1F8
:105A2000002B18D1002A0CD0BC460D4F38667A6680
:105A300000210023FFE7FFE7FFE77A6F386F674633
:105A40007047002801D00748010000B503F0B8FDF9
:105A50000022002300BD02000B000020002170473F
:105A6000000000D0FFFFFFFF002B00D0BFE0130CB1
:105A700028D1002AE7D080B4114F39667A66FFE753
:105A8000FFE730B4040C7B6F396F1B0423433B6684
:105A90007A66FFE7FFE7FFE7C04684B27B6F3D6FA2
:105AA0001B0423433B667A66FFE7FFE7C0460023FB
:105AB0002C042D0C7A6F386F00196941B0BC704707
:105AC000000000D0F0B594460025140E01D112025A
:105AD0000835140F01D112010435940F01D1920041
